:0400000002001132B7
:03000B00020143AC
:10006A00752400E4F525F526F527F528F529F52A5E
:10007A00F52BF52CF52DF52EF52FF5307531047588
:10008A0032027533017534057535017536197537C0
:10009A002975384175394D753A55F53DF53E753F27
:1000AA0003F540754103F542F543F544F545F54638
:0800BA007547FF75480FF54979
:0300CE0002000E1F
:03000E000205A741
:1000D100AF82E54823235403FEE548C4540F62066A
:1000E100E548C3136E5401FEE54825484EF548AD79
:1000F1004A7E008F037C00EDC39BF50CEE9CF50D51
:10010100AD488D828E83C007120BCFAD82D007ED33
:100111002FF58222AF82C3EF6480850CF063F080FB
:1001210095F050028002AF0C8F8222AF82C3E50CA2
:1001310064808FF063F08095F050028002AF0C8FE5
:100141008222C021C0E0C0F0C082C083C007C006C7
:10015100C005C004C003C002C001C000C0D075D03A
:1001610000758CFC758A187401253BFEE4353CFF53
:1001710074015EF53B753C00453C60030203BF9092
:10018100002575F0401207F77F00BF0200503C8F39
:1001910006EE253FF58285400BC007120ABDD00748
:1001A1007D007E00C3ED9410EE648094805019753B
:1001B1008200C007C006C005120AF9D005D006D0DA
:1001C100070DBD00DF0E80DC0F80BFAE25AF26C35B
:1001D10074B89E748B8FF063F08095F0500A0545DA
:1001E100E4B5451805468014C3EE9448EF64809445
:1001F100745009154574FFB545021546C3E495458C
:1002010074808546F063F08095F05009053FE4F570
:1002110045F546800CE54630E707153FE4F545F521
:10022100467407B53F05753F06800874FFB53F0367
:10023100753F00E53FFE3395E0FF74082EF582E43B
:100241003FF583750C08750D00120BCFAE828E3F02
:10025100E53D2471F582E53E340CF583E4932540B8
:10026100F540853D82853E83A3750C0C750D00120A
:100271000BCF85823D85833E750B14758200120A72
:10028100BD7E007F00C3EE9405EF648094805057DB
:10029100EE2436F9E7FD3395E0FC750C0A750D0087
:1002A1008D828C83C007C006C001120C05AC82741C
:1002B100302CF582120A16D001E7FD3395E0FC756A
:1002C1000C0A750D008D828C83120BCFAC827430B9
:1002D1002CF582120A16758220120A16D006D00752
:1002E1000EBE00A10F809E74FFB54702800302037A
:1002F1009E7E007F00C3EE9405EF648094804003EE
:100301000203B9EE2431F9E7FC3395E0FDEC24FE5C
:10031100FAED34FFFBE53FF54D3395E0F54EC3E5CE
:100321004D9AE54E64808BF063F08095F0406674E1
:10033100022CFCE43DFDC3EC954DED6480854EF04F
:1003410063F08095F0404EEE2436F98705C3ED64E5
:10035100808542F063F08095F0503AC3E5406480B7
:100361008DF063F08095F0502CE54345446024ED19
:100371003395E0FCE540FA3395E0FBEDC39AFDECE3
:100381009BFCC3ED9543EC64808544F063F080955C
:10039100F050028E470EBE00010F0202F6E547241F
:1003A10036F9E7FF3395E0FEE540FC3395E0FDEFDC
:1003B100C39CF543EE9DF544853F41854042E4F5FC
:1003C1004BF54CC3E54B9405E54C648094804003A8
:1003D100020521E54B2431F9E54B2436F87D00BDBA
:1003E100020040030204C387048D03EB2CF58286CF
:1003F1000BC005C001C000120ABDD000D001D0055C
:100401007B007C00C3EB9408EC64809480502175E0
:100411008200C005C004C003C001C000120AF9D0A7
:1004210000D001D003D004D0050BBB00D70C80D481
:10043100E6FCFA3395E0FBEAC39543FAEB9544FBFE
:10044100C3E49A74808BF063F08095F05070870359
:100451008D02EA2BF582AB43ECC39BF50BC005C0C3
:1004610002C001C000120ABDD000D001D002D005E7
:10047100EAC40354F8FC7A007B00C3EA9408EB64F5
:1004810080948050398A07EF2CFF3395E0FEEF24EA
:1004910061F582EE340CF583E493F582C005C00466
:1004A100C003C002C001C000120AF9D000D001D0BF
:1004B10002D003D004D0050ABA00BF0B80BC0D02E4
:1004C10003E0E54B2436F98707AE43EFC39EFFF700
:1004D100C374808FF063F08095F04039E549C4031F
:1004E10054F82432F582E549C40354F82450F54AFE
:1004F100C0011200D1E582D001F7E549FE3395E054
:10050100FF8E828F83A3750C05750D00120BCFAE84
:1005110082AF838E49054BE4B54B02054C0203C4FF
:10052100E5407007F543F5447547FF7F00BF0200C2
:1005310050578F06EE253FF58285400BC007120A02
:10054100BDD0077D007E00C3ED9410EE64809480E1
:1005510050348F04ECC454F0FC8D03EB2CFC339528
:10056100E0FBEC2441F582EB340CF583E493F58256
:10057100C007C006C005120AF9D005D006D0070D84
:10058100BD00C40E80C10F80A4D0D0D000D001D056
:1005910002D003D004D005D006D007D083D082D0BA
:1005A100F0D0E0D02132758901758CFC758A18D2A2
:1005B100A9D2AFD281D2801209A712075A120A9288
:1005C1007E007F00C3EE9405EF64809480400302B7
:1005D1000652EE2431F9EE2436F87D00BD020050BA
:1005E1006887048D03EB2CF582860BC007C006C01B
:1005F10005C001C000120ABDD000D001D005D0064F
:10060100D0077C00BC0800503D8D03EBC40354F8B7
:10061100FB8C02EA2BFB3395E0FAEB2461F582EACD
:10062100340CF583E493F582C007C006C005C0040D
:10063100C001C000120AF9D000D001D004D005D009
:1006410006D0070C80BE0D80930EBE00010F02057F
:05065100C5D28C80FE03
:100C4100B6929292FF01FF010101018101020CF0B4
:100C51000D0404040F080F88F080F08A08040201D3
:100C6100FFFFFFFE000000003F7F7FFF000000004C
:0C0C7100181010080401FFFCF8F0F0E877
:10065600D281D280120743C281120743C28022C2CE
:1006660081D280120743D281020743A2009281D22F
:1006760080120743C280020743D280120743A28139
:1006860092D7C280120743A2D722AF827E008F057F
:10069600ED2DFFA2D79281D280C007C00612074374
:1006A600C280120743D006D0070EBE080040DF0204
:1006B600067F7F00D2817E008F05ED2DFDD280C0A2
:1006C60006C005120743D005D006A281E4334DFFCC
:1006D600C280C007C006120743D006D0070EBE0868
:1006E6000040D58F8222AF82C007120656D0078FF0
:1006F600821206908508821206908509821206905B
:10070600020665AF82C007120656D0078F82C00761
:10071600120690850A82120690120665120656D0B7
:100726000774014FF5821206901206B8AF82D20006
:10073600C007120671120665D0078F82227F05DF79
:10074600FE22AC830CAD827E037FAADFFEDEFADDDD
:04075600F6DCF222B9
:0C00C200754F0075500175510675520015
:10075A0090006412074875586B7559007582D0125B
:10076A0007E890006412074875586875590775823A
:10077A00D01207E875586B7559017582D01207E8CF
:10078A0075581A7559037582D01207E87558197584
:10079A0059007582D01207E8E550C40354F8F55998
:1007AA0075581B7582D01207E8E54FC40354F8F553
:1007BA005975581C7582D01207E875581D7559036A
:1007CA007582D01207E87558377559227582D0128A
:1007DA0007E87558387559007582D00207E88558B8
:1007EA00088559090206EC855A0A02070985825BBF
:1007FA0085835C85F05D755A3B7582D01207F1E5F9
:10080A0082F552755A3C7582D01207F1E582F5538A
:10081A00755A3D7582D01207F1E582F554755A3E34
:10082A007582D01207F1E582F555755A3F7582D067
:10083A001207F1E582F556755A407582D01207F112
:10084A00E582F557AC527B00AA537F00EA4203EFD8
:10085A004204855B82855C83855DF0EB120B05A300
:10086A00EC120B057402255BFDE4355CFEAF5DAB53
:10087A00547C008B5F8C5EAA55E55E4202E55F42BE
:10088A00048D828E838FF0EA120B05A3EC120B05FE
:10089A007404255BFDE4355CFEAF5DAB567C008BD2
:1008AA005F8C5EAA57E55E4202E55F42048D828E46
:1008BA00838FF0EA120B05A3EC020B058582608593
:1008CA00836185F062755A487582D01207F1E58214
:1008DA00F557755A477582D01207F1E582F55675B4
:1008EA005A467582D01207F1E582F555755A457553
:1008FA0082D01207F1E582F554755A447582D012F6
:10090A0007F1E582F553755A437582D01207F1ACA7
:10091A00828C528C037C00AA537F00EA4204EF4285
:10092A00038560828561838562F0EC120B05A3EB77
:10093A00120B0574022560FDE43561FEAF62AB540B
:10094A007C008B648C63AA55E5634202E564420429
:10095A008D828E838FF0EA120B05A3EC120B0574BD
:10096A00042560FDE43561FEAF62AB567C008B6402
:10097A008C63AA57E5634202E56442048D828E8342
:10098A008FF0EA120B05A3EC020B0575586B75592B
:10099A00807582D01207E89000640207487582A821
:1009AA00120AED75823F120AED7582D3120AED75AD
:1009BA008200120AED758240120AED7582A1120AAE
:1009CA00ED7582C8120AED7582DA120AED75821285
:1009DA00120AED758281120AED75827F120AED758F
:1009EA0082A4120AED7582A6120AED7582D5120A40
:1009FA00ED758280120AED75828D120AED758214E8
:100A0A00120AED7582AF120AED020A92AF82BF0A8C
:100A1A0001227E00EF24E0F50CEE34FFF50D900084
:100A2A0005120B20AE82AF837D008D037C00EB2E76
:100A3A00FBEC3FFCEB247DF582EC340CF583E4936C
:100A4A00F582C007C006C005120AF9D005D006D043
:100A5A00070DBD050040D3758200020AF9AD82AECA
:100A6A0083AFF08D828E838FF0120BB3FC60188CEB
:100A7A00820DBD00010EC007C006C005120A16D0BD
:100A8A0005D006D00780DC227F00750B008F82C05C
:100A9A0007120ABDD0077E00758200C007C0061281
:100AAA000AF9D006D0070EBE800040EC0FBF08003E
:100ABA0040D822AF82AE0B74022EF50BAE0B740F28
:100ACA005EF582C007C006120AEDD006EEC4540FC6
:100ADA00FE74104EF582120AEDD00774B04FF582FB
:100AEA00020AED8582097508007582780206EC858E
:0B0AFA0082097508407582780206EC46
:100C7D00000000000000002F000000070007001416
:100C8D007F147F14242A7F2A1223130864623649A5
:100C9D005522500005030000001C22410000412296
:100CAD001C0014083E081408083E08080000A06047
:100CBD000008080808080060600000201008040201
:100CCD003E5149453E00427F400042615149462117
:100CDD0041454B311814127F1027454545393C4A83
:100CED0049493001710905033649494936064949D3
:100CFD00291E003636000000563600000814224129
:100D0D000014141414140041221408020151090690
:100D1D00324959513E7C1211127C7F494949363E68
:100D2D00414141227F4141221C7F494949417F096F
:100D3D000909013E4149497A7F0808087F00417F32
:100D4D0041002040413F017F081422417F40404037
:100D5D00407F020C027F7F0408107F3E4141413EDF
:100D6D007F090909063E4151215E7F091929464631
:100D7D004949493101017F01013F4040403F1F205A
:100D8D0040201F3F4038403F63140814630708702C
:100D9D0008076151494543007F41410055AA55AAB5
:100DAD00550041417F000402010204404040404093
:100DBD00000305000020545454787F4844443838CB
:100DCD0044444420384444487F3854545418087ED1
:100DDD0009010218A4A4A47C7F0804047800447DB2
:100DED0040004080847D007F1028440000417F40FA
:100DFD00007C041804787C08040478384444443892
:100E0D00FC2424241818242418FC7C080404084805
:100E1D0054545420043F4440203C4040207C1C202E
:100E2D0040201C3C4030403C44281028441CA0A0CD
:100E3D00A07C4464544C4400107C82000000FF00F0
:0B0E4D000000827C100000060909066E
:06004000E478FFF6D8FD94
:10001E007900E94400601B7A00900E58780175A0B3
:10002E0000E493F2A308B8000205A0D9F4DAF27541
:02003E00A0FF21
:100B050020F71130F6138883A88220F509F6A8830B
:100B15007583002280FEF280F5F022E582850CF0D7
:100B2500A4C582C0F0850DF0A4D0F025F0C583855D
:100B35000CF0A42583F58322E50C450D60467A016A
:100B4500E50C25E0F50CE50D334012F50DE5829534
:100B55000CE583950D40030A80E6C3E50D13F50DFD
:100B6500E50C13F50CC3E582950CF5F0E583950DC1
:100B75004005F58385F082C3E50D13F50DE50C13EE
:050B8500F50CDAE1228D
:100046007800E84400600A790175A000E4F309D855
:10005600FC7800E84400600C7900900001E4F0A30D
:04006600D8FCD9FAEF
:100B8A007A10E4FBFCE58225E0F582E58333F58300
:100B9A00EB33FBEC33FCEB950CF5F0EC950D4006D2
:090BAA00FCABF0438201DADD220C
:0D001100758164120C3DE582600302000E53
:100BB30020F71430F6148883A88220F507E6A8836B
:100BC30075830022E280F7E49322E022C2D5E58315
:100BD30030E70DD2D5E4C39582F582E49583F5839E
:100BE300E50D30E70BE4C3950CF50CE4950DF50D1D
:100BF300120B3D30D50BE4C39582F582E49583F562
:100C03008322C2D5E58330E70DD2D5E4C39582F5BF
:100C130082E49583F583E50D30E70DB2D5E4C39502
:100C23000CF50CE4950DF50D120B8A30D50BE4C3CE
:0E0C33009582F582E49583F583227582002276
:00000001FF
