:0400000002001132B7
:03000B000200A749
:10006A00752400E4F525F526F527F528F529F52A5E
:10007A00F52BF52CF52DF52EF52FF530F533F53456
:0E008A00753503F536753718F538F539F53A42
:0300A40002000E49
:03000E0002027F6C
:1000A700C021C0E0C0F0C082C083C007C006C00541
:1000B700C004C003C002C001C000C0D075D0007525
:1000C7008CFC758A1874012531FEE43532FF740102
:1000D7005EF5317532004532600302020390002558
:1000E70075F0401204967F00BF0200503DAE358F79
:1000F70005ED2EF58285370BC00712075CD0077D0B
:10010700007E00C3ED9410EE6480948050197582D0
:1001170000C007C006C005120798D005D006D00753
:100127000DBD00DF0E80DC0F80BEAE25AF26C37489
:10013700B89E748B8FF063F08095F0500A0539E410
:10014700B53918053A8014C3EE9448EF6480947467
:100157005009153974FFB53902153AC3E495397456
:1001670080853AF063F08095F0500F0535E4B5359A
:10017700020536E4F539F53A8013E53A30E70E150E
:100187003574FFB535021536E4F539F53A7407B518
:100197003506E4B5360280028008753506753600E7
:1001A700800D74FFB53508B53605E4F535F53685A8
:1001B7003582853683A3A3A3A3A3A3A3A3750C08A2
:1001C700750D00120845858235858336853382850E
:1001D7003483A3750C0C750D001208458582338591
:1001E7008334E53324AFF582E5343408F583E493AB
:1001F700FF7E002537F537EE3538F5387F00BF022B
:10020700005058AE358F05ED2EF58285370BC007A8
:1002170012075CD0077D007E00C3ED9410EE64806A
:10022700948050348F04ECC454F0FC8D03EB2CFC09
:100237003395E0FBEC247FF582EB3408F583E493F8
:10024700F582C007C006C005120798D005D006D0B2
:10025700070DBD00C40E80C10F80A3D0D0D000D041
:1002670001D002D003D004D005D006D007D083D068
:1002770082D0F0D0E0D02132758901758CFC758A67
:1002870018D2A9D2AFD281D2801206461203F91230
:100297000731750B7875820312075C7F00BF020078
:1002A70050488F0674032EF582750B78C007120726
:1002B7005CD0077E00BE0800502D8F05EDC40354A7
:1002C700F8FD8E04EC2DFD3395E0FCED249FF582BF
:1002D700EC3408F583E493F582C007C0061207984B
:0E02E700D006D0070E80CE0F80B3D28C80FEE2
:10087F00B6929292FF01FF010101018101020CF07A
:10088F000D0404040F080F88F080F08A0804020199
:10089F00FFFFFFFE000000003F7F7FFF0000000012
:0C08AF00181010080401FFFCF8F0F0E83D
:1002F500D281D2801203E2C2811203E2C28022C2FD
:1003050081D2801203E2D2810203E2A2009281D25D
:10031500801203E2C2800203E2D2801203E2A281CC
:1003250092D7C2801203E2A2D722AF827E008F0548
:10033500ED2DFFA2D79281D280C007C0061203E23D
:10034500C2801203E2D006D0070EBE080040DF02CD
:10035500031E7F00D2817E008F05ED2DFDD280C06A
:1003650006C0051203E2D005D006A281E4334DFF95
:10037500C280C007C0061203E2D006D0070EBE0831
:100385000040D58F8222AF82C0071202F5D0078FB9
:100395008212032F85088212032F85098212032FEB
:1003A500020304AF82C0071202F5D0078F82C0078F
:1003B50012032F850A8212032F1203041202F5D0AD
:1003C5000774014FF58212032F120357AF82D20033
:1003D500C007120310120304D0078F82227F05DFA6
:1003E500FE22AC830CAD827E037FAADFFEDEFADD42
:0403F500F6DCF2221E
:0C009800753B00753C01753D06753E008F
:1003F9009000641203E775446B7545007582D0124D
:1004090004879000641203E775446875450775828F
:10041900D012048775446B7545017582D012048723
:1004290075441A7545037582D01204877544197588
:1004390045007582D0120487E53CC40354F8F5459C
:1004490075441B7582D0120487E53BC40354F8F543
:100459004575441C7582D012048775441D75450382
:100469007582D01204877544377545227582D0127A
:1004790004877544387545007582D0020487854420
:100489000885450902038B85460A0203A885824728
:1004990085834885F04975463B7582D0120490E5FD
:1004A90082F53E75463C7582D0120490E582F53F8F
:1004B90075463D7582D0120490E582F54075463E39
:1004C9007582D0120490E582F54175463F7582D058
:1004D900120490E582F5427546407582D012049067
:1004E900E582F543AC3E7B00AA3F7F00EA4203EF79
:1004F90042048547828548838549F0EB1207A4A306
:10050900EC1207A474022547FDE43548FEAF49AB58
:10051900407C008B4B8C4AAA41E54A4202E54B429A
:10052900048D828E838FF0EA1207A4A3EC1207A42C
:1005390074042547FDE43548FEAF49AB427C008B86
:100549004B8C4AAA43E54A4202E54B42048D828E0E
:10055900838FF0EA1207A4A3EC0207A485824C85D5
:10056900834D85F04E7546487582D0120490E58218
:10057900F5437546477582D0120490E582F54275B8
:1005890046467582D0120490E582F5417546457557
:1005990082D0120490E582F5407546447582D012E6
:1005A9000490E582F53F7546437582D0120490ACFC
:1005B900828C3E8C037C00AA3F7F00EA4204EF4212
:1005C90003854C82854D83854EF0EC1207A4A3EB7D
:1005D9001207A47402254CFDE4354DFEAF4EAB4025
:1005E9007C008B508C4FAA41E54F4202E5504204F2
:1005F9008D828E838FF0EA1207A4A3EC1207A474EC
:1006090004254CFDE4354DFEAF4EAB427C008B50CA
:100619008C4FAA43E54F4202E55042048D828E83F6
:100629008FF0EA1207A4A3EC0207A475446B754581
:10063900807582D01204879000640203E77582A84E
:1006490012078C75823F12078C7582D312078C753D
:10065900820012078C75824012078C7582A11207DD
:100669008C7582C812078C7582DA12078C75821212
:1006790012078C75828112078C75827F12078C751F
:1006890082A412078C7582A612078C7582D512076F
:100699008C75828012078C75828D12078C75821475
:1006A90012078C7582AF12078C020731AF82BF0A1D
:1006B90001227E00EF24E0F50CEE34FFF50D9000E9
:1006C900051207BFAE82AF837D008D037C00EB2E40
:1006D900FBEC3FFCEB24BBF582EC3408F583E49397
:1006E900F582C007C006C005120798D005D006D00C
:1006F900070DBD050040D3758200020798AD82AE93
:1007090083AFF08D828E838FF0120829FC60188CDC
:10071900820DBD00010EC007C006C0051206B5D086
:1007290005D006D00780DC227F00750B008F82C0C0
:100739000712075CD0077E00758200C007C0061249
:100749000798D006D0070EBE800040EC0FBF080006
:1007590040D822AF82AE0B74022EF50BAE0B740F8C
:100769005EF582C007C00612078CD006EEC4540F8E
:10077900FE74104EF58212078CD00774B04FF582C3
:1007890002078C85820975080075827802038B85BA
:0B079900820975084075827802038B0E
:1008BB00000000000000002F0000000700070014DC
:1008CB007F147F14242A7F2A12231308646236496B
:1008DB005522500005030000001C2241000041225C
:1008EB001C0014083E081408083E08080000A0600D
:1008FB0000080808080800606000002010080402C7
:10090B003E5149453E00427F4000426151494621DC
:10091B0041454B311814127F1027454545393C4A48
:10092B004949300171090503364949493606494998
:10093B00291E0036360000005636000008142241EE
:10094B000014141414140041221408020151090656
:10095B00324959513E7C1211127C7F494949363E2E
:10096B00414141227F4141221C7F494949417F0935
:10097B000909013E4149497A7F0808087F00417FF8
:10098B0041002040413F017F081422417F404040FD
:10099B00407F020C027F7F0408107F3E4141413EA5
:1009AB007F090909063E4151215E7F0919294646F7
:1009BB004949493101017F01013F4040403F1F2020
:1009CB0040201F3F4038403F6314081463070870F2
:1009DB0008076151494543007F41410055AA55AA7B
:1009EB00550041417F000402010204404040404059
:1009FB00000305000020545454787F484444383891
:100A0B0044444420384444487F3854545418087E96
:100A1B0009010218A4A4A47C7F0804047800447D77
:100A2B0040004080847D007F1028440000417F40BF
:100A3B00007C041804787C08040478384444443857
:100A4B00FC2424241818242418FC7C0804040848CB
:100A5B0054545420043F4440203C4040207C1C20F4
:100A6B0040201C3C4030403C44281028441CA0A093
:100A7B00A07C4464544C4400107C82000000FF00B6
:0B0A8B000000827C1000000609090634
:06004000E478FFF6D8FD94
:10001E007900E94400601B7A00900A96780175A079
:10002E0000E493F2A308B8000205A0D9F4DAF27541
:02003E00A0FF21
:1007A40020F71130F6138883A88220F509F6A88370
:1007B4007583002280FEF280F5F022E582850CF03C
:1007C400A4C582C0F0850DF0A4D0F025F0C58385C2
:1007D4000CF0A42583F58322E50C450D60467A01CF
:1007E400E50C25E0F50CE50D334012F50DE5829599
:1007F4000CE583950D40030A80E6C3E50D13F50D62
:10080400E50C13F50CC3E582950CF5F0E583950D25
:100814004005F58385F082C3E50D13F50DE50C1352
:05082400F50CDAE122F1
:100046007800E84400600A790175A000E4F309D855
:10005600FC7800E84400600C7900900001E4F0A30D
:04006600D8FCD9FAEF
:0D00110075815012087BE582600302000E2D
:1008290020F71430F6148883A88220F507E6A883F8
:1008390075830022E280F7E49322E022C2D5E583A2
:1008490030E70DD2D5E4C39582F582E49583F5832B
:10085900E50D30E70BE4C3950CF50CE4950DF50DAA
:100869001207DC30D50BE4C39582F582E49583F554
:06087900832275820022BB
:00000001FF
